:1000000000100020C53C0000C13C0000C13C0000C5
:1000100075870000C13C0000C13C0000C13C0000ED
:10002000C13C0000C13C0000C13C0000C13C0000DC
:10003000C13C0000C13C0000C13C0000C13C0000CC
:10004000C13C000009E70000C13C0000C13C0000C9
:1000500031DF000061E7000015E700002DE7000038
:100060000DE70000C13C0000B9420000C13C0000A7
:100070008903000079030000C13C0000C13C00007E
:10008000C13C0000C13C0000D9420000C13C00005E
:10009000C13C0000C13C0000C13C0000C13C00006C
:1000A000C13C0000C13C0000C13C0000C13C00005C
:1000B00065E7000011E70000990A0100818D00004A
:1000C000A1E70000C13C000001CF0000C13C0000DE
:1000D000C13C0000C13C0000C13C0000C13C00002C
:1000E000C13C0000C13C000010B5054C237833B979
:1000F000044B13B10448AFF300800123237010BDFB
:10010000EC11002000000000C091010008B5034B75
:100110001BB103490348AFF3008008BD0000000095
:10012000F0110020C0910100A3F5803A704700BF94
:10013000174B002B08BF134B9D46FFF7F5FF00211F
:100140008B460F461348144A121A11F031FD0E4B1C
:10015000002B00D098470D4B002B00D09847002073
:10016000002104000D000D48002802D00C48AFF318
:10017000008011F0D1FC2000290009F053FF11F09C
:10018000B7FC00BF000008000000000000000000F5
:1001900000100020EC1100202426002000000000A8
:1001A000000000000020704700207047704708B52D
:1001B00003F0FFFA08BD000030B585B0094C226895
:1001C000094B1A60094D0A4B2B600A4B019307F04B
:1001D000BBFE02902B68039301A9206806F0D6FDB0
:1001E00005B030BD181000208420002080200020A1
:1001F0000C1000202433010038B507F0A5FE04469A
:10020000054D2B68D86C07F093FE286806F0D0FDEA
:10021000204607F08DFE38BD1810002008B50421D7
:10022000112004F0ADFC0121084804F0EFF8022190
:10023000074804F0A5FC0221064804F0A1FC0221B5
:10024000054804F09DFC002008BD00BF30053E00BD
:1002500002001E00030020000500240008B50F4B1B
:1002600001225A641A6842F480721A600C4AD2F869
:10027000A43143F4F843C2F8A43107F03DFE03F083
:10028000B9FA07F0CBFD07F0E9FD07F021FEFFF713
:10029000C5FF07F0D3FD03F09FFA08BD00000E4034
:1002A00000300E4008B503F0FDFE03F0AFFF00F094
:1002B0003BFA03F00BFB08BD08B506F075FA06F033
:1002C00071FC06F097FC00F02BFA08BD08B500F0B1
:1002D00059FA00F09BFF08BD704708B5FFF78CFF87
:1002E00008BD7047704708B500F042F808BD08B572
:1002F00003F05BFA08F012FB07F0C0FE08F09AF971
:10030000FFF7F1FFFFF758FF08BD000010B592B0EE
:10031000144C0DF12C0CA646BEE80F00ACE80F0003
:100320009EE807008CE807000DF1180C04F11C0E84
:10033000BEE80F00ACE80F00DEF80030CCF800306B
:100340000DF1080C04F130030FCB8CE80F00064BC5
:10035000009306AB0BAA6146044808F05BF812B0A4
:1003600010BD00BF3C33010060120020C01200200D
:1003700008B5FFF7CBFF08BD08B5024B186808F0B9
:100380000DF908BDC012002008B5024B186808F02E
:1003900005F908BDC0120020F0B583B005460E4631
:1003A000104F114C3946206807F02AFE00F0E8F99A
:1003B00000F0E7F90D4B009339230D4A0D492068F1
:1003C00007F01EFE0C4A0D49206807F019FE33465F
:1003D0002A460B49206807F013FE3946206807F0CB
:1003E0000FFEFEE7F8390100D8120020EC330100BF
:1003F0007C330100A0330100AC330100B0330100B5
:10040000C833010008B5FFF7C7FF08BD704708B53E
:10041000FFF7FCFF08BD704738B504460D4606F0EF
:10042000CDF929462046FFF7F6FF38BD08B502F0A2
:10043000A3FB08BD0000000070B58AB0002306933E
:100440000793089309939A4B06939A4906A809F0D3
:10045000F9FD994B186040B30023059305A90AF0F4
:10046000F3F90546002840D0944E954C314620685B
:1004700007F0C6FD00F084F900F083F9914B00937A
:100480007323914A9149206807F0BAFD904A914937
:10049000206807F0B5FD2A468F49206807F0B0FDB7
:1004A0003146206807F0ACFDFEE7844D844C2946B8
:1004B000206807F0A5FD00F063F900F062F9814BB8
:1004C00000936823804A8149206807F099FD834A98
:1004D0008049206807F094FD8149206807F090FD6D
:1004E0002946206807F08CFDFEE7734C7D4A7E4B61
:1004F000196820680AF08EF80021206806F02EFBAB
:10050000064600B36D4D6E4C2946206807F078FD15
:1005100000F036F900F035F96A4B009388236A4AF7
:100520006A49206807F06CFD694A6A49206807F04B
:1005300067FD32466D49206807F062FD2946206854
:1005400007F05EFDFEE74FF001115B4B18680AF003
:1005500074F9054600B3594E594C3146206807F0EE
:100560004FFD00F00DF900F00CF9564B0093942369
:10057000554A5649206807F043FD554A55492068B9
:1005800007F03EFD2A465A49206807F039FD3146FA
:10059000206807F035FDFEE743A3D3E90023CDE94A
:1005A00000234FF0FF324FF0FF33434908680AF051
:1005B00073F8064600B3414D414C2946206807F0C8
:1005C0001FFD00F0DDF800F0DCF83E4B00939D23AA
:1005D0003D4A3E49206807F013FD3D4A3D492068E9
:1005E00007F00EFD32464349206807F009FD294611
:1005F000206807F005FDFEE73F4B1B88ADF8103083
:10060000ADF80C3004A92C4B18680AF02BF80646FC
:1006100000B32A4D2A4C2946206807F0F1FC00F06F
:10062000AFF800F0AEF8274B0093AD23264A2749D8
:10063000206807F0E5FC264A2649206807F0E0FC20
:1006400032462E49206807F0DBFC2946206807F077
:10065000D7FCFEE703A9184B18680AF019F80646FC
:1006600008B90AB070BD154D154C2946206807F031
:10067000C7FC00F085F800F084F8124B0093B22319
:10068000114A1249206807F0BBFC114A1149206841
:1006900007F0B6FC32461A49206807F0B1FC29463B
:1006A000206807F0ADFCFEE7082100010002000011
:1006B0002D0400000F0400001C100020F839010078
:1006C000D8120020CC3501000C340100A033010009
:1006D0007C340100B0330100B03401002C3401003F
:1006E000543401001904000004100020DC3401001F
:1006F000143501003C350100C835010068350100A2
:100700009835010082B0054B019302AB03EB8000EA
:1007100050F8043C186802B0704700BF1C1000205D
:1007200008B5FFF789FE08BD08B5034803F0F4FBE0
:10073000024803F0F1FB08BDE4350100FC3501007F
:1007400003460B4A107828B10A4A12789A4202D21C
:10075000002000E00120084A12783AB1074A1278D6
:1007600042FA03F313F0010F00D10020704700BFDD
:100770003010002031100020DC1200203210002048
:100780007047704708B5084B01221A70074B0022CA
:100790001A70074B04221A70064B1F221A7007F0BA
:1007A000D3FB054B186008BD30100020DC12002080
:1007B0003110002032100020D812002008B502F0BD
:1007C0002DFF08BD002070470020704730B5C3B032
:1007D00002AD00240294FC22214603A811F0E8F99E
:1007E0008DF807400DF10701284601F04FFF9DF8F5
:1007F0000730013BEC540320FFF7A2FF08B943B0D8
:1008000030BDFFF7BDFFFFF7BCFF2A460249034B8F
:10081000186807F0F5FBF2E714360100D812002043
:1008200008B50320FFF78CFF00B908BDFFF7A8FF4C
:10083000FFF7A7FF054B1868054B1B7823B9054A3E
:10084000054907F0DDFBF0E7044AF9E7D81200207C
:100850004414002030360100343601002C360100EB
:1008600008B5B0B18268A2B1C36852F8233083B131
:100870001B78012B1CD90320FFF762FF68B1FFF73B
:100880007FFFFFF77EFF1749174B186807F0B8FB8B
:1008900003E00120FFF754FF00B908BDFFF770FF28
:1008A000FFF76FFF1149104B186807F0A9FBF4E739
:1008B0000F4A13700320FFF743FF10B9FFF77EFFC5
:1008C000EBE7FFF75DFFFFF75CFF074B1868084B8E
:1008D0001B7823B9074A084907F092FBEEE7074A5D
:1008E000F9E700BF68360100D81200204C3601003D
:1008F0004414002030360100343601002C3601004B
:1009000000B585B001F06DFD68B90F4B5B780F4AFB
:100910000D21684609F04AFB0320FFF711FF30B9AB
:1009200005B05DF804FB684602F04BFBF4E7FFF707
:1009300027FFFFF726FF044B5A786B46044905480A
:10094000006807F05DFBEBE74414002090360100DF
:100950009C360100D812002038B5D0B10446836817
:10096000BBB1C26853F822309BB11D78234B1B7872
:10097000AB4233D92846FFF727FFC8B9204B5D703B
:10098000012002F01BFEFFF719FF2046FFF7B8FF1A
:1009900038BD0120FFF7D4FE0028F9D0FFF7F0FEA4
:1009A000FFF7EFFE1749184B186807F029FBEFE730
:1009B0002846FFF707FF10B1114B5D70E0E70320F9
:1009C000FFF7BEFE0028E3D0FFF7DAFEFFF7D9FEFF
:1009D0000E490D4B186807F013FBD9E70320FFF70A
:1009E000AFFE0028D4D0FFF7CBFEFFF7CAFE0849C0
:1009F000054B186807F004FBCAE700BFE2150020AA
:100A000044140020B8360100D8120020D43601006A
:100A10002837010030B587B0002305930493ADF863
:100A20000E300DF10E0204A905A801F0DDFD1F4BEB
:100A30005A8814B20320FFF783FE08B907B030BD0F
:100A4000FFF79EFEFFF79DFE84EAE47EAEEBE47EB8
:100A50001FFA8EFEBDF90E1081EAE17CACEBE17C61
:100A60001FFA8CFC124880FB0E239B1003EB8303C0
:100A700080FB0425E217C2EBA50280FB0C54A410F6
:100A800004EB8404ACEB4404019480FB0140C917DF
:100A9000C1EBA00109B20091AEEB430312B20549CC
:100AA0000548006807F0ACFAC8E700BF441400200E
:100AB0006766666658370100D812002038B530B333
:100AC000044683681BB3C26853F82230FBB1B3F904
:100AD000005001F095FCA84203DC01F0CFFCA842D5
:100AE00024DA0320FFF72CFEA8B1FFF749FEFFF739
:100AF00048FE134B1D6801F083FC044601F0BEFC68
:100B0000034622460F49284607F07AFA03E00120FF
:100B1000FFF716FE00B938BDFFF732FEFFF731FED2
:100B20000949074B186807F06BFAF4E7074B5D803B
:100B300001F0E0FCFFF742FE2046FFF76BFFEAE71B
:100B4000D81200209C3701007C370100441400209B
:100B500000B589B0002304930393ADF80A300DF17A
:100B60000A0203A904A801F03FFD049B1B4AA2FB53
:100B70000312920C1A4901FB1232D2B101F18641E3
:100B800001F5492101F64341A1FB03131549A1FBDE
:100B90000212C2F34F3200929B0C134A0B2105A89C
:100BA00009F004FA0320FFF7CBFD60B909B05DF846
:100BB00004FB0A4AA2FB03239B0C0C4A0B2105A849
:100BC00009F0F4F9EEE7FFF7DBFDFFF7DAFD05AA20
:100BD0000749084B186807F013FAE7E783DE1B4361
:100BE00040420F005917B7D1C4370100D037010078
:100BF000D8370100D812002008B50320FFF7A0FD68
:100C000000B908BDFFF7BCFDFFF7BBFD044B9A8898
:100C100092B20449044B186807F0F2F9F1E700BFFB
:100C200044140020F0370100D812002030B583B002
:100C300058B30446836843B3C26853F8223023B3E1
:100C40001D880023ADF80630ADF8043001A90DF180
:100C5000060001F0EDFCBDF80630AB4203D8BDF84C
:100C60000430AB4221D20320FFF76AFD88B1FFF7C1
:100C700087FDFFF786FDBDF80430BDF806200F495B
:100C80000F48006807F0BCF903E00120FFF758FDAA
:100C900008B903B030BDFFF773FDFFF772FD0949D6
:100CA000074B186807F0ACF9F3E7074B9D80FFF797
:100CB00085FD2046FFF7A0FFEBE700BF9C37010052
:100CC000D8120020083801004414002008B5032081
:100CD000FFF736FD00B908BDFFF752FDFFF751FDE4
:100CE000034B9A790349044B186807F089F9F2E736
:100CF0004414002030380100D812002030B583B0F1
:100D000060B3044683684BB3C26853F822302BB3F8
:100D10001D7800238DF807308DF806300DF106019F
:100D20000DF1070001F0A2FC9DF80730AB4203D89B
:100D30009DF80630AB4221D20320FFF701FD88B1B8
:100D4000FFF71EFDFFF71DFD9DF806309DF80720FB
:100D50000E490F48006807F053F903E00120FFF740
:100D6000EFFC08B903B030BDFFF70AFDFFF709FD3E
:100D70000849074B186807F043F9F3E7064B9D71E4
:100D8000FFF71CFD2046FFF7A1FFEBE79C370100B2
:100D9000D8120020483801004414002008B5144B34
:100DA0001B899BB24FF6FF72934211D00320FFF7CD
:100DB000C7FC00B908BDFFF7E3FCFFF7E2FC0C4BF2
:100DC0001A8992B20B490C4B186807F019F9F1E730
:100DD0000320FFF7B5FC0028ECD0FFF7D1FCFFF7AC
:100DE000D0FC0649044B186807F00AF9E2E700BF97
:100DF0004414002070380100D81200208838010007
:100E000010B5A0B1044683688BB1C26853F8223094
:100E10006BB11B78072B19D8144A32F81320144BE6
:100E20001A81FFF7CBFC2046FFF7B8FF10BD012069
:100E3000FFF786FC0028F9D0FFF7A2FCFFF7A1FC22
:100E40000C490D4B186807F0DBF8EFE70320FFF7BC
:100E500077FC0028EAD0FFF793FCFFF792FC0749E4
:100E6000054B186807F0CCF8E0E700BF803A0100B6
:100E700044140020A4380100D8120020C838010012
:100E800008B50320FFF75CFC00B908BDFFF778FC4C
:100E9000FFF777FC034B9A7A0349044B186807F075
:100EA000AFF8F2E744140020F0380100D812002017
:100EB00010B5B8B104468368A3B1C26853F82230B4
:100EC00083B11B78202B1BD90320FFF739FCF0B12D
:100ED000FFF756FCFFF755FC0D490E4B186807F05D
:100EE0008FF814E00120FFF72BFC80B1FFF748FCDE
:100EF000FFF747FC0849074B186807F081F806E040
:100F0000064A9372FFF75AFC2046FFF7B9FF10BD5F
:100F10002C390100D81200200839010044140020A7
:100F200008B50320FFF70CFC00B908BDFFF728FC4B
:100F3000FFF727FC034BDA7A0349044B186807F0E4
:100F40005FF8F2E74414002054390100D812002061
:100F500010B5B8B104468368A3B1C26853F8223013
:100F600083B11B78202B1BD90320FFF7E9FBF0B1DD
:100F7000FFF706FCFFF705FC0D490E4B186807F05C
:100F80003FF814E00120FFF7DBFB80B1FFF7F8FB2F
:100F9000FFF7F7FB0849074B186807F031F806E040
:100FA000064AD372FFF70AFC2046FFF7B9FF10BDCF
:100FB0002C390100D81200206C39010044140020A3
:100FC00008B50320FFF7BCFB00B908BDFFF7D8FB4D
:100FD000FFF7D7FB034B1A7B0349044B186807F054
:100FE0000FF8F2E7441400208C390100D8120020D9
:100FF00010B5A8B10446836893B1C26853F8223093
:1010000073B11B78202B03D0402B01D0802B16D13D
:10101000124A1373FFF7D2FB2046FFF7D1FF10BD32
:101020000120FFF78DFB0028F9D0FFF7A9FBFFF7A0
:10103000A8FB0B490B4B186806F0E2FFEFE7032013
:10104000FFF77EFB0028EAD0FFF79AFBFFF799FB3A
:101050000549044B186806F0D3FFE0E7441400206C
:10106000A4390100D8120020CC39010008B50320B2
:10107000FFF766FB00B908BDFFF782FBFFF781FBB6
:10108000054B1868054B5B7B23B1054A054906F003
:10109000B7FFF0E7044AF9E7D81200204414002013
:1010A000003A0100043A0100FC39010010B5B8B162
:1010B00004468368A3B1C26853F8223083B11B7819
:1010C000012B1CD90320FFF73BFB68B1FFF758FB4E
:1010D000FFF757FB0F49104B186806F091FF03E02C
:1010E0000120FFF72DFB00B910BDFFF749FBFFF70B
:1010F00048FB0A49084B186806F082FFF4E7003BFA
:1011000018BF0123064A5373FFF758FB2046FFF729
:10111000ADFFE9E7443A0100D81200201C3A010073
:101120004414002008B5064B1B781BB1054B012267
:1011300083F82520022002F06BFAFFF73FFB08BD81
:10114000441400201C14002008B5094B1B785BB127
:10115000084B002283F8252001F0BFFD012002F09A
:1011600057FAFFF72BFB08BD01F03CFBF4E700BF8B
:10117000441400201C14002010B504460320FFF77F
:10118000DFFA40BB2046FFF74BFB2046FFF7B8FBDA
:101190002046FFF73FFC2046FFF7DAFC2046FFF72A
:1011A0002BFD2046FFF792FD2046FFF7F7FD204676
:1011B000FFF766FE2046FFF7B3FE2046FFF700FF6D
:1011C0002046FFF753FF0320FFF7BAFA68B920461D
:1011D000FFF7FCFA10BDFFF7D3FAFFF7D2FA084980
:1011E000084B186806F00CFFCCE7FFF7C9FAFFF7C9
:1011F000C8FA0549034B186806F002FFE7E700BF8D
:101200006C3A0100D8120020F839010008B54FF4FB
:10121000FA6007F053FC044B18604FF4FA6007F0D3
:101220004DFC024B186008BDE012002004130020A2
:1012300020B9074B187800221A707047012801D096
:1012400000207047034B187800221A70704700BFC7
:10125000001300202413002010B582B0044602F0D1
:1012600062FE012807D0274B9C4230D0264B9C427F
:101270003AD002B010BD234B9C4215D0224B9C4269
:10128000F7D1224B1B78002BF3D10123204A137096
:101290001E4A13700023019300931E4A1E490968D9
:1012A0001E4807F0E1FBE4E71D4B1B78002BE0D163
:1012B00001231C4A13701A4A1370002301930093F0
:1012C000144A19490968194807F0CEFBD1E7144BB5
:1012D00000221A70154807F05DFB4FF4FA6007F022
:1012E000EDFB114B1860C4E7084B00221A700B4845
:1012F00007F050FB4FF4FA6007F0E0FB064B186074
:10130000B7E700BFE4350100FC35010025130020DC
:1013100024130020311300000413002008130020C0
:101320000113002000130020E0120020E41200202E
:1013300008B5104B984203D00F4B98420DD008BD12
:101340000E4B00221A704FF4FA7007F0B7FB0C4BEB
:1013500018600C48FFF780FFF1E70B4B00221A7072
:101360004FF4FA7007F0AAFB084B18600848FFF723
:1013700073FFE4E7E41200200813002001130020AB
:10138000E0120020E43501002513002004130020A2
:10139000FC35010065280ED8084B1B78834203D327
:1013A000181A074B185C7047C01AC0B2C0F166002B
:1013B000034B185C70470020704700BFBA13002031
:1013C0005413002038B5841CE400164D0123224636
:1013D0001946284604F05EFE0223621C01212846BD
:1013E00004F058FE0323A21C0121284604F052FEFB
:1013F0000423E21C0121284604F04CFE0323221D95
:101400000121284604F046FE0223621D01212846E0
:1014100004F040FE0123A21D1946284604F03AFEBE
:1014200038BD00BF2813002030B585B0224C002500
:10143000A56001230193009323681B88023B02935C
:1014400094F82530023303936946204604F0E1FE08
:1014500023681B88013B039A01322946204604F089
:1014600019FE23681B88013B039A02322946204655
:1014700004F010FE23685B88023B039394F8252058
:101480009B1A013B01936946204604F0C2FE236883
:101490001B88013B019A013A2946204604F0FAFDD7
:1014A00023681B88013B019A023A2946204604F032
:1014B000F1FD05B030BD00BF2813002030B585B068
:1014C0000446084D284604F0D7FF0022029202236A
:1014D0000193009201232146284604F0E9FF05B05C
:1014E00030BD00BF28130020F0B585B007460E467A
:1014F000504C5149204604F0BFFF94F8245094F812
:1015000025C0B31E052B77D8DFE803F06C47505A8F
:10151000630300228DF808201546002F74D0454B38
:101520001B681B8803EB4303C5EB5305C5F34F054D
:10153000404B1B685C88A4EB0C04A4B2013CA4B231
:10154000002A69D03D4B53F8262013785178D2F801
:1015500002200192009122462946364804F07AFD85
:10156000344C3749204604F087FF236819885B888C
:1015700094F825209A1A023A4908204604F0D6FD2C
:1015800023685A8894F82510521A1B88033A0021C0
:10159000204604F07FFD05B0F0BD2A4B93E8030020
:1015A00002908DF80C10AD000022B6E7264B93E8B0
:1015B00003000290ADF80C1005EB85050022ACE7A6
:1015C000224B93E8030002908DF80C10AD0000222E
:1015D000A3E71F4B93E8030002908DF80C10AD00B9
:1015E00000229AE71B4B1B68ADF808301B0C8DF8E6
:1015F0000A306D00002290E7104B53F826301D781A
:1016000093F801C0012288E70A4B1B681B88C5EBD1
:101610005305C5F34F058BE702A810F0A1FB024666
:101620000023019300942B4602A9024804F0E2FE35
:1016300096E700BF2813002008490100441000204D
:10164000D8450100903A0100983A0100A03A010003
:10165000A83A0100B03A01002DE9F04385B00646F2
:101660000C4600F1180801F12109314D4B460A469C
:101670004146284604F05AFD06F116074346621D0E
:101680003946284604F006FD434604F11102394666
:10169000284604F0FFFC2B681B88013B4A4639466C
:1016A000284604F0F7FCDFF88C800A234246052127
:1016B00002A808F07BFC02A810F052FB0246A31C13
:1016C000002701970093334602A9284604F092FEB2
:1016D0006FF027034246052102A808F067FC02A824
:1016E00010F03EFB024604F10E03019700933346CF
:1016F00002A9284604F07EFE6FF0630342460521EE
:1017000002A808F053FC02A810F02AFB024695F844
:10171000253003EB4303234401970093334602A98A
:10172000284604F067FE5FFA89F005B0BDE8F08353
:1017300028130020B43A0100F8B506460D460124EE
:101740000BE0A5EBA00005F1200300F120023946D3
:10175000094804F0EBFC0134E4B2652C0BD83719CE
:10176000013FC4F16600C0B2FFF714FE40B264301E
:10177000E7D50330E5E7F8BD28130020F0B583B0C6
:1017800006461A48002585606FF07F43436018497C
:1017900004F072FE344607E00135EDB2204601F058
:1017A000A3FE08BB0134E4B273190C339C421BD274
:1017B000204601F063FC0028EED1204601F0E6FE51
:1017C0000746204601F0E2FE10F0CAFA0246A31BCB
:1017D0005B1B0233DB000021019100930623394695
:1017E000024804F007FED9E703B0F0BD281300203B
:1017F000D84501002DE9F0478AB00446584B1A78C5
:10180000D2B2584B1B8B012A77D0564A578BBFB2A6
:10181000968BB6B292F822305BB2D2F800A0D2F822
:1018200004904FF6FF72964200F084804E4A1621D3
:1018300004A808F0BBFB152204A94C4801F04CFC9D
:10184000054610F08DFA0246DFF83081002301933F
:10185000009401232946404604F0CCFD98F8255019
:101860002544EDB24FF6FF739E4269D00097334690
:101870003F4A162104A808F099FB152204A93D4807
:1018800001F02AFC074610F06BFA0246DFF8EC8004
:1018900000230193009501233946404604F0AAFD38
:1018A00098F825302B44DDB24FF6FF739E4250D09E
:1018B00050460FF061FCCDE9020148460FF05CFC98
:1018C000CDE900012C4A162104A808F06FFB04A8FA
:1018D00010F046FA0246294E002301930095012399
:1018E00004A9304604F086FD96F825302B44DBB27F
:1018F000181BC0B20AB0BDE8F0879BB2204A16217F
:1019000004A808F053FB152204A91E4801F0E4FBCB
:10191000054610F025FA0246184E00230193009464
:1019200001232946304604F065FD96F8253023440E
:10193000DBB2DDE7144A04AB07CA03C31A807AE7B7
:10194000124A04AB07CA03C323F8022B120C1A7005
:1019500093E70F4A162104A808F028FBB7E700BF59
:10196000441400201C140020D83A0100E43A01007D
:10197000F83A0100003B01001C3B01002813002045
:10198000FC3A0100BC3A0100CC3A0100EC3A0100FB
:10199000043B01002DE9F04F8FB00446002307936C
:1019A0000693ADF816300DF1160206A907A800F04F
:1019B0001BFE00F01AFDC44B1B78DBB2012B39D0A3
:1019C000C14B9F7AFFB2DE7AF6B21B78002B40F053
:1019D0003B81079BBD4AA2FB0312920CBC4901FB51
:1019E0001232002A00F0268101F1864101F54921D9
:1019F00001F64341A1FB0313B649A1FB0212C2F356
:101A00004F3200929B0CB44A152108A808F0CEFA78
:101A100008A810F0A5F90246B04D002301930094E8
:101A2000012308A9284604F0E5FC95F82550254433
:101A3000EDB20AE18246079BA44AA2FB0312920C74
:101A4000A34901FB1232002A00F0EA8001F186412D
:101A500001F5492101F64341A1FB03139D49A1FB77
:101A60000212C2F34F3200929B0C9D4A152108A826
:101A700008F09CFA152208A99A4801F02DFB0746A8
:101A800010F06EF90246954D002601960094012350
:101A90003946284604F0AEFC95F825702744FFB27D
:101AA000069B914AA2FB0323C3F38F138F4A152190
:101AB00008A808F07BFA152208A98D4801F00CFB54
:101AC000804610F04DF902460196009701234146E9
:101AD000284604F08FFC95F825301F44FFB2DFF84C
:101AE000E881B8F80430DFF834929BB24A461521F9
:101AF00008A808F05BFA152208A97E4801F0ECFA64
:101B0000834610F02DF902460196009701235946AD
:101B1000284604F06FFC95F825301F44FFB250466C
:101B200008F000FEB8F802301BB283EAE371A1EBC3
:101B3000E37189B280EAE07CACEBE07C1FFA8CFCBC
:101B40006D4A82FB03AEDB17C3EBAE0382FB0CAE28
:101B50004FEAAE0E0EEB8E0EACEB4E0ECDF808E05B
:101B600082FB00ECC017C0EBAC0000B2019082FB1E
:101B70000102921002EB8202A1EB420200921BB220
:101B80005E4A152108A808F011FA152208A95C4838
:101B900001F0A2FA824610F0E3F80246019600979F
:101BA00001235146284604F025FC95F825301F44B2
:101BB000FFB298F80B304A46152108A808F0F6F94C
:101BC000152208A94F4801F087FA824610F0C8F89C
:101BD00002460196009701235146284604F00AFC6C
:101BE00095F825301F44FFB298F80A304A4615216F
:101BF00008A808F0DBF9152208A9434801F06CFA9F
:101C0000804610F0ADF80246019600970123414648
:101C1000284604F0EFFB95F825303B44DBB24EE05C
:101C20002A4AA2FB03239B0C384A152108A808F076
:101C3000BDF91FE7254AA2FB03239B0C344A15215B
:101C400008A808F0B3F9E3E62546069B264AA2FB5E
:101C500003231D4A928892B20092C3F38F132D4A38
:101C6000152108A808F0A2F908A810F079F8024692
:101C7000DFF868804FF00009CDF80490009501234B
:101C800008A9404604F0B6FB98F825302B44DDB295
:101C900000973346204A152108A808F087F908A8BC
:101CA00010F05EF80246CDF804900095012308A9D3
:101CB000404604F09FFB98F825302B44DBB2181BFC
:101CC000C0B20FB0BDE8F08F4414002083DE1B4388
:101CD00040420F005917B7D19C3B01002813002048
:101CE000C4370100343B0100D34D6210403B01007A
:101CF000483B01005C3B010067666666683B01008B
:101D00007C3B0100843B0100903B0100D037010087
:101D1000A83B0100B03B0100C83B0100583B01005B
:101D200008B5002004F03AF800B1FEE7074804F0D7
:101D3000FDF800B1FEE705486FF07F4343600023E4
:101D40008360034904F098FB08BD00BF28130020FE
:101D50000849010010B51A4C204604F01BF9FFF7A2
:101D600063FB6FF07F43A36016491748FFF7A6FB9C
:101D700094F8252023681B88013B0232002120466D
:101D800004F088F900210846FFF7AEFB01F088FB5C
:101D900001F00AFC01460120FFF7A6FB01F09EFBC3
:101DA000FFF7ECFC01F07CFB01F080FB044601F046
:101DB00095FB201AC0B2FFF705FB04F01DF810BD1B
:101DC0002813002008490100E03B010030B58FB026
:101DD000002407940694ADF816400DF1160206A9EA
:101DE00007A800F001FC274D284604F0D3F8264B45
:101DF00001933F23009380230A222146284604F0C2
:101E000029F92249284604F037FB029401940094F2
:101E1000012308221E49284604F04AFB1D49284692
:101E200004F02AFB00F0DDFA08BB079B1A4AA2FB6C
:101E30000323BDF91620194981FB0201D217C2EB19
:101E4000A10212B200929B0C154A162108A808F0B4
:101E5000ADF8002302930193009301230A2208A9FD
:101E6000084804F025FB03F0C7FF0FB030BD029413
:101E700001940094012309220A49284604F018FB22
:101E8000D3E700BF28130020383C010008490100B7
:101E9000F03B0100D845010083DE1B4367666666A0
:101EA000103C0100FC3B010070B5234D284604F0B6
:101EB00071F8FFF7B9FA6FF07F43AB601F49204814
:101EC000FFF7FCFA95F825202B681B88013B0232AE
:101ED0000021284604F0DEF806210020FFF704FB6D
:101EE0000026AE600F214FF0FF30FFF7B5FB044630
:101EF0000F211820FFF720FCE21C2B681B88013BF8
:101F0000D2B23146284604F0C5F80634E4B2204681
:101F1000FFF740FD0444E4B2621C2B681B88013BC0
:101F2000D2B23146284604F0B5F8201DC0B2FFF702
:101F300061FC03F061FF70BD281300200849010017
:101F4000F03B010070B51F4C204604F023F8FFF76A
:101F50006BFA6FF07F43A3601B491C48FFF7AEFA92
:101F600094F8252023681B88013B0232002120467B
:101F700004F090F8164B93F8253003B305210120A7
:101F8000FFF7B2FA06210020FFF7AEFA0D4D00264A
:101F9000AE601020FFF7FEFC044600F114022B682F
:101FA0001B88013BD2B23146284604F073F804F195
:101FB0001C00C0B2FFF71EFC03F01EFF70BD042121
:101FC000DDE700BF2813002008490100F03B0100B5
:101FD0001C140020002304E0054A9C21D154013345
:101FE000DBB2652BF8D9034B00221A70704700BF93
:101FF00054130020BA130020074A13780133DBB2D0
:102000001370652B02D9134600221A70024B1B78FD
:10201000024AD054704700BFBA1300205413002066
:1020200010F1640F03DB0A28A8BF0A2070476FF085
:102030006300704708B5012001F0EAFA01F0EEFAFA
:1020400008BD000010B504460320FEF779FB00B977
:1020500010BDFEF795FBFEF794FB22460249034BA9
:10206000186805F0CDFFF3E734400100D8120020D6
:1020700010B582B0FFF754FE00F034FB00F0ECFF27
:10208000002001F0C5FA01F0C9FA40F6B83006F0B8
:1020900015FD01460023019300930E4A0E4806F0F9
:1020A000E3FC28B90D48FFF7CDFF012002B010BDB9
:1020B00004460120FEF744FB0028F3D0FEF760FB46
:1020C000FEF75FFB22460649064B186805F098FFAD
:1020D000E8E700BF35200000BC130020604001008D
:1020E00038400100D812002010B582B000238DF8CE
:1020F00007300DF10701184806F096FC20B99DF84D
:10210000073093B902B010BD04460120FEF718FB5A
:102110000028F4D0FEF734FBFEF733FB22460F49CC
:102120000F4B186805F06CFFE9E70B4806F032FC2E
:1021300004460028E6D00120FEF702FB0028E1D08B
:10214000FEF71EFBFEF71DFB22460649044B1868EE
:1021500005F056FFD6E700BFBC1300206C4001001D
:10216000D812002098400100052303E0AA22C2549F
:102170000133DBB29AB28A4204D213F0010FF5D0D8
:102180005522F4E77047000008B5034608460B8067
:10219000044B9A7A8A70DA7ACA709979FFF7E4FF69
:1021A00008BD00BF4414002000B50F4991F8243049
:1021B0005A09023251F8220003F01F0E4FF0010CB1
:1021C0000CFA0EFC20EA0C0041F822000133DBB2CD
:1021D000064A127BD2B29A4200D80023024A82F801
:1021E00024305DF804FB00BF1C14002044140020C0
:1021F0001E4B93F82430DBB21D4A127BD2B28242CE
:1022000002D970B310B510E0194B1B7BDBB207E0AD
:10221000013216494FF0FF3041F82200203BDBB27B
:102220005A09F5D170470138B8B15A090F4C02323A
:1022300054F8221003F01F0E4FF0010C0CFA0EFCA4
:1022400041EA0C0144F822100133DBB2084A127B48
:10225000D2B29A42E7D80023E5E7044A82F8243054
:1022600010BD024A82F82430704700BF1C140020C1
:1022700044140020034B00225A611A61DA609A600C
:10228000704700BF1C1400200E4B03EA5003C31A12
:102290000D4A02EA90001B1A03EBD30323F06353A9
:1022A00023F40E1323F4636323F008030748A0FB11
:1022B00003201A1A00EB52004009C0EB8010181AD4
:1022C000704700BFDBB66DDB49922449054110041D
:1022D00038B50024254609E0A21C084B53F822001B
:1022E000FFF7D2FF2844C5B20134E4B2044B1B7B94
:1022F000B4EB531FF0D3284638BD00BF1C14002098
:1023000044140020F0B583B01546012308F09EFA6E
:10231000854201D103B0F0BD0446114F114E39463C
:10232000306805F06DFEFEF72BFAFEF72AFA0E4B29
:10233000009340F211630D4A0D49306805F060FECC
:102340000C4A0D49306805F05BFE2B4622460B49CE
:10235000306805F055FE3946306805F051FEFEE75D
:10236000F8390100D8120020D0430100BC40010020
:10237000A03301002C410100B03301004C410100A9
:1023800070B505460C4616468A8889680FF0E8FB4A
:10239000E16831B16288A088121A92B228440FF025
:1023A000DFFB35606088B0F5807F28BF4FF4807018
:1023B00070BD0020704700207047002303600B6051
:1023C0007047002303800B807047002303700B705D
:1023D0007047704770477047704700207047002073
:1023E000704708B5FFF7E5FF08BD08B5FFF7F9FF2F
:1023F00010B1FFF7E0FF08BD0020FEF783F9FAE710
:1024000010B582B0FFF7F1FF694608F067F950B9DF
:102410009DF8000004F07EF80446A8B11CB3B4F99E
:10242000020002B010BD04460120FEF789F9002821
:10243000EED0FEF7A5F9FEF7A4F922460B490C4BA6
:10244000186805F0DDFDE3E70120FEF779F90028C3
:10245000E4D0FEF795F9FEF794F90649044B1868A5
:1024600005F0CEFDDAE70448DBE700BF9841010044
:10247000D8120020D8410100FCFEFFFF10B582B049
:10248000FFF7B3FF694608F029F950B99DF800003D
:1024900004F040F80446A8B11CB3B4F9000002B03F
:1024A00010BD04460120FEF74BF90028EED0FEF7E0
:1024B00067F9FEF766F922460B490C4B186805F0E0
:1024C0009FFDE3E70120FEF73BF90028E4D0FEF78B
:1024D00057F9FEF756F90649044B186805F090FDC8
:1024E000DAE7C820DBE700BF24420100D812002051
:1024F0006442010010B5FFF778FF0C4B598809B210
:1025000008F0EEF800B910BD04460120FEF718F9F6
:102510000028F8D0FEF734F9FEF733F922460449D3
:10252000044B186805F06CFDEDE700BF4414002073
:10253000B0420100D8120020F0B583B00546FFF785
:1025400054FF0446694608F0C9F8FFF74AFF40B156
:10255000002D41D06946204608F0ADF8002835D05E
:10256000FEE71E4E73781E4F002257F823102046B8
:1025700008F050F8B3889BB2727857F8222092681E
:10258000128A9A4200D33DB1144B5978144A52F83A
:1025900021209268D2899A80104B5A78104B53F8B8
:1025A00022309B685A680F4B9A4207D89DF800303A
:1025B000022BCDD002238DF80030CBE79DF8003000
:1025C000002BC5D000238DF80030C3E7FFF756FF7E
:1025D0000146204608F084F803B0F0BD4414002002
:1025E00004100020FFC99A3B70B505460C461646FC
:1025F000FFF7FBFE08F096F83080FFF7F2FE70B9A7
:10260000094A5178094B53F82110896849682960B3
:10261000527853F822309B689B68236070BD214636
:102620002846FFF7CAFEF9E74414002004100020F2
:1026300038B505460C46FFF7D4FE70B9094A517803
:10264000094B53F821108968C9892980527853F8B9
:1026500022309B681B8A238038BD21462846FFF71D
:10266000B0FEF9E7441400200410002038B50546F8
:102670000C46FFF7B6FE20B907232B7040232370CA
:1026800038BD21462846FFF7A0FEF9E770B582B0B5
:1026900006460D46002406E02A4631462046FFF74E
:1026A00098FE0134E4B20C4B1B78A34212D90B4BB9
:1026B0001B78002BF0D0A342EED928780094234653
:1026C000074AFF21304407F071FC30460FF048FB09
:1026D0002870E6E702B070BDE2150020F11300207B
:1026E000D442010008B50A4B00221A7002E00133FF
:1026F000074A1370064B1B78FF2B04D0054A52F88B
:102700002320002AF3D104480370FFF763FE08BDBD
:10271000F113002004100020E2150020064B0022D7
:102720005A83DA834FF6FF7199831A831A84034B15
:1027300001221A70704700BF1C1400205D15002094
:1027400010B5FFF752FE0446FFF7E8FFFFF749FE1A
:1027500028B1094B1B78DBB2012B06D010BD064B0C
:102760009979204607F096FFF3E78023002203497A
:10277000204608F06DF8F1E74414002060150020B1
:1027800010B5FFF732FE0022104B83F82520104BC6
:10279000998889B207F0A6FC38B900230D4A137056
:1027A0000D4A1370FFF716FC10BD04460120FDF71B
:1027B000C7FF0028F1D0FDF7E3FFFDF7E2FF224657
:1027C0000649074B186805F01BFCE6E71C140020BF
:1027D00044140020541400205C150020E442010041
:1027E000D812002008B5FFF700FE0122002107F0F3
:1027F0004FFC08BDF0B583B0FFF7F7FD0446874BEB
:102800001B7803F0FF05C3B1844B00221A70844B80
:102810001B8C9BB24FF6FF72934219D0804A138CE7
:102820009BB201339BB213847E4B9988002289B2FC
:10283000204607F057FC064660B97B4B1B78CBB9A6
:10284000784B5B7B0BB1794B1D70284603B0F0BD14
:102850000025E9E70120FDF773FF0028EDD0FDF723
:102860008FFFFDF78EFF32467149724B186805F0F5
:10287000C7FBE2E702F0E5FA6B4A1378013BDBB2F3
:10288000137002F0E4FA6C4A0221204607F0FEFFC2
:102890006A4B18606A4A0221204607F0FBFFFFF7E7
:1028A000A0FD002800F0A280634EB288B1686548A0
:1028B0000FF056F9F16839B17288B388D21A92B222
:1028C000604818440FF04CF90221204607F0E6FF5B
:1028D0005C48FFF784FD0646524FB988002289B252
:1028E000204607F0FFFBB278FB7ADBB29A42ACD10C
:1028F000F278BB7ADBB29A42A7D1494B9B8B9BB251
:102900004FF6FF72934205D03288454B5B8B9BB2EA
:102910009A420CD8424A002494833388013B9BB2EC
:10292000D383FFF757FBFFF7A5FC474B1C603C4BDD
:102930009B8B9BB24FF6FF72934205D0384A938B24
:102940009BB201339BB293833388354CE28B92B2B6
:102950009B1A9BB263833A4B93F90A3084F8223076
:1029600094F8223094F8220040B2FFF759FBC0B22D
:10297000FFF742FB638B9BB2334A12689B1A012B11
:1029800042D8FFF711FC264C638B9BB22E4A136092
:10299000FFF79EFC07EE100AB8EEC77ADFED2B7A40
:1029A00027EE277A1F4B1B7BDBB207EE903AF8EE3F
:1029B000E77AC7EE276AC4ED016A638B9BB253B313
:1029C000A28B92B29A1A07EE102AB8EEC77ADFED00
:1029D0001F7A27EE277A07EE903AF8EEE77AC7EEED
:1029E000276A0F4BC3ED006A012529E700230193F5
:1029F00001AA11491348FFF7C3FC104B1968204680
:102A000007F04CFF019E67E7608B80B2801A0138A7
:102A1000FFF7EEFBB5E7DFED0E6AE2E754140020A6
:102A20001C140020441400205C150020F01300202A
:102A300008430100D8120020081400205815002077
:102A4000F413002058140020EC1300200000C842AA
:102A500000000000424B1B78002B7FD02DE9F04393
:102A60009BB03F4B00221A703E4B1B783BB13D4B55
:102A70001B78DBB2012B4FD01BB0BDE8F0833A4B83
:102A80009B8B9BB24FF6FF729342F5D00DF1400C39
:102A9000354C0FCCACE80F000FCCACE80F0094E83D
:102AA00003008CE803002F4B0CAC0FCB84E80F0025
:102AB0000120FDF745FE0028DED0FDF761FEFDF7A1
:102AC00060FEBDF85C50BDF86060BDF85A709DF8BE
:102AD00036809DF83C909DF962309DF83B209DF832
:102AE0003A10224804680A910992089311980EF04E
:102AF00043FBCDE9060110980EF03EFBCDE9040141
:102B0000CDF80890CDF80480009733462A4618493E
:102B1000204605F075FAAFE7134B93F82530002BEC
:102B2000AAD0114B1C8BA4B20E4B1A8995B2DA7A3B
:102B3000D6B29B7ADFB20320FDF702FE00289BD0BD
:102B4000FDF71EFEFDF71DFE019700962B4622465F
:102B500008490648006805F053FA8DE7704700BF42
:102B6000F0130020441400201C140020D812002070
:102B70002443010088430100F8B505461C4602F0D5
:102B8000AA4C03F022015CEA010305D012F0807F19
:102B90001AD0454B0121197044490A420DD012F058
:102BA000080F41D112F4807F4BD0414B01221A70A3
:102BB000404A537843F002035370002604F4007730
:102BC00056EA070361D1F8BD12F0806F05D039498C
:102BD0000B7843F001030B70DEE712F0805F05D045
:102BE00034490B7843F002030B70D5E712F0804FA5
:102BF00005D030490B7843F004030B70CCE714F098
:102C0000020F05D02B490B7843F008030B70C3E784
:102C100014F0200FC0D027490B7843F010030B703D
:102C2000254B01211970B7E702F00BF9234A1378FD
:102C30000133DBB2137002F00AF9284607F02CFECC
:102C4000BBE712F4803F05D01A4A537843F00103E2
:102C50005370B2E712F4806F05D0164A537843F0F0
:102C600004035370A9E712F4006F05D0114A53789A
:102C700043F008035370A0E712F4004F9DD00D4AB3
:102C8000537843F01003537097E70022114628460B
:102C900007F094FD0A4B18701B78002B93D0094B5A
:102CA000C3E900678FE700BF5D150020088D0100B4
:102CB00054140020E81300205E1500205C1500204D
:102CC000D8130020E013002008B50020FDF71AFDFE
:102CD0000122002107F0DCF908BD08B5FFF7F4FF79
:102CE000FFF779FBFFF778FB08BD704770470020BE
:102CF0007047000030B5A3B00546FFF776FB0446E9
:102D0000002102917C2203A80EF052FFFFF769FB1D
:102D100090B1FFF762FB38B902A92846FFF7E5FF3B
:102D2000FFF7E5FF82B20DE002A92846FFF7DEFFBC
:102D30009DF80920023205E002A92846FFF724FA8F
:102D4000114B9A7902A92046FFF7DCFA0E4B9988BD
:102D5000002200920D4B89B2204607F09DF90446EF
:102D600008B923B030BD0120FDF7EAFC0028F8D0F7
:102D7000FDF706FDFDF705FD22460549054B1868E0
:102D800005F03EF9EDE700BF441400204C10002090
:102D9000B4430100D812002008B5194B1B8B9BB21D
:102DA000184A128992B29A421ED9174B1B7823B93E
:102DB000164B1B7803F0FF00DBB1134B00221A7097
:102DC000124B1B7863B90E4A138B9BB201339BB233
:102DD00013830B4B188B80B2FFF78CFF012008E0A8
:102DE0000A4B00221A70F4E7054B002283F82520D5
:102DF0000120044B5B7B0BB1054B187008BD00BF75
:102E00001C140020441400205D1500205E150020D5
:102E1000F013002008B1024A02600320704700BF8F
:102E2000E0430100084A13780133DBB213701378D2
:102E3000DBB2012B04D9044B00221A700120704729
:102E40000028FBD0F7E700BF4414002000207047A3
:102E500048B9094A13780133DBB21370072B02D942
:102E6000134600221A70044B1A78044B33F81220D0
:102E7000034B1A8101207047541000205445010073
:102E800044140020074A937A0133DBB29372937A99
:102E9000DBB2202B00D810B1024B00229A72012025
:102EA000704700BF44140020074AD37A0133DBB2D5
:102EB000D372D37ADBB2202B00D810B1024B0022A0
:102EC000DA720120704700BF44140020084B1B7BBE
:102ED000DBB2802B00D020B1054B20221A730120D9
:102EE0007047034A137B5B00DBB21373F7E700BF45
:102EF00044140020054A537B83F00103537310B13F
:102F0000134600225A730120704700BF441400206A
:102F100008B1024A02600420704700BFF443010078
:102F200008B10020704708B5022000F071FB0120B5
:102F300008BD08B10120704708B500F069FB012009
:102F400008BD000010B50446FFF74FFAFCB107F0CA
:102F5000E9FB194B58805B881BB2184981FB0321A0
:102F6000DA17C2EB610202EB82029B1A1BB2CBB1F1
:102F70001148428812B20232104981FB0231D31744
:102F8000C3EB610303EB83031BB243800AE00A4AED
:102F9000538805331BB25380548824B2FFF76EFA6E
:102FA000844203DCFFF7A6FA012010BDFFF728FAE0
:102FB000014B5880F6E700BF441400206766666640
:102FC000704770477047704710B504460C4A9379B4
:102FD0000133DBB29371FFF704FA30B114B1FFF79C
:102FE000F1FF0BE0FFF7EFFF08E0054B9B79DBB249
:102FF000402B00D814B1024B07229A71012010BD5A
:10300000441400207047000010B50446FFF7E9F9AA
:10301000D0B90F4A93889BB201339BB293809388B7
:103020009BB251780B4A52F821209268128A9A4238
:1030300000D33CB1064B5978064A52F821209268D9
:10304000D2899A80012010BDFFF7DCFFFAE700BFAC
:10305000441400200410002038B5002501E001359B
:10306000EDB2054C04EB0514636801209847237BFF
:10307000002BF4D038BD00BF844401000D4B1B78F9
:1030800043B900010C4B1B5C012B01D000207047A1
:1030900001207047074B1B78DBB2012B08D10001E0
:1030A000054B1B5C022B01D00020704701207047AC
:1030B00000207047441400208444010008B5044BEC
:1030C0001A78044B03EB02135B680020984708BD95
:1030D000E11500208444010070B50D461646002419
:1030E00004E0104A135501300134E4B20378002B98
:1030F000F7D104E00B4B20221A550134E4B22846E4
:103100000EF02EFE301A8442F4D304E0054A135523
:1031100001350134E4B22B78002BF7D10148035577
:1031200070BD00BFE415002008B51422FFF7D4FFDE
:1031300008BD000068B110B50446074B5B7B33B196
:1031400006490748FFF7F0FF2060012010BD054940
:10315000F7E70120704700BF44140020003A010047
:1031600008440100FC39010090B110B582B004465A
:10317000084B1B7B084A04210DEB010006F016FFEB
:1031800001A90648FFF7D0FF2060012002B010BD62
:103190000120704744140020583B01001C440100EA
:1031A00090B110B582B00446084BDB7A084A04217E
:1031B0000DEB010006F0FAFE01A90648FFF7B4FF87
:1031C0002060012002B010BD01207047441400208F
:1031D000583B01002C44010090B110B582B0044668
:1031E000084B9B7A084A04210DEB010006F0DEFE35
:1031F00001A90648FFF798FF2060012002B010BD2A
:103200000120704744140020583B0100903B01000E
:1032100018B310B582B00446114B1B899BB24FF610
:10322000FF7293420ED10E4B1B899BB24FF6FF7279
:10323000934210D069460B48FFF776FF20600120CB
:1032400002B010BD064B1B899BB2074A0621684697
:1032500006F0ACFEE7E70549EDE70120704700BF47
:103260004414002040440100583B01003844010050
:1032700088B110B582B00446084B9B79084A0321F7
:1032800001A806F093FE01A90648FFF74DFF206054
:10329000012002B010BD0120704700BF441400207F
:1032A000583B01005044010098B110B582B004466B
:1032B000094B9B889BB2094A04210DEB010006F0E3
:1032C00075FE01A90648FFF72FFF2060012002B01C
:1032D00010BD0120704700BF44140020583B01007E
:1032E0006044010000283CD010B588B0044600239B
:1032F00003930493ADF80A300DF10A0204A903A860
:10330000FFF772F9039B184AA2FB0312920C1749AC
:1033100001FB1232DAB101F1864101F5492101F6D2
:103320004341A1FB03131249A1FB0212C2F34F3226
:1033300000929B0C0F4A0B2105A806F037FE05A949
:103340000D48FFF7F1FE2060072008B010BD064AC7
:10335000A2FB03239B0C094A0B2105A806F026FEBD
:10336000EDE70720704700BF83DE1B4340420F009C
:103370005917B7D1C4370100343B0100D0370100E1
:1033800030B589B00446FFF730F8002C38D007F08C
:10339000C9F91D4B5B881BB283EAE37CACEBE37C91
:1033A0001FFA8CFC80EAE071A1EBE07189B2174A48
:1033B00082FB035EDB17C3EBAE0382FB015E4FEAC9
:1033C000AE0E0EEB8E0EA1EB4E01029182FB001EA3
:1033D000C117C1EBAE0109B2019182FB0C12921030
:1033E00002EB8202ACEB420200921BB2084A0F21B0
:1033F00004A806F0DBFD04A90648FFF795FE20604F
:10340000012009B030BD00BF441400206766666625
:10341000683B01007C3B0100C0B110B584B004469C
:10342000FEF7DFFF70B90A4B5B780A4A0F21684646
:1034300006F0BCFD69460848FFF776FE20600120D3
:1034400004B010BD6846FFF7BCFDF3E701207047EC
:10345000441400209036010070440100A0B110B562
:1034600004460A4B1B78DBB2012B04D0074B1B78B8
:1034700043B9074900E007490748FFF755FE2060B8
:10348000012010BD0549F7E70120704744140020D2
:10349000303601002C3601007C44010078440100E4
:1034A000014B1878704700BFE115002070B5064643
:1034B0000024254600E00134A64207DDE0B2FFF714
:1034C000DDFD0028F7D00135EDB2F4E7024B1878A6
:1034D000401BC0B270BD00BFE1150020014B187841
:1034E000704700BFE0150020024B03EB0013187B70
:1034F000704700BF8444010038B50024254607E02A
:103500000135EDB22046FFF7EFFF38B90134E4B2E0
:103510002046FFF7B3FD0028F4D0F1E7284638BD78
:10352000174B1A78174B03EB02131B7BB3B1002325
:10353000134A1370144A13707047FFF7DDFF0446F7
:103540000F4B1878FFF7B2FF0444C4F10D04062CAA
:1035500014D90D4A1378013313700FE010B5084BDE
:1035600018780130C0B21870FFF788FD0028F6D136
:10357000034B1878FFF79AFF0528DED810BD00BF6F
:10358000E115002084440100E015002000B583B05F
:10359000044B03EB00139B6801A89847019803B004
:1035A0005DF804FB8444010008B5034B03EB0013F2
:1035B0009B680020984708BD8444010010B504466C
:1035C000FFF7FEFC2046FEF7B7FF0120FFF7BAFC2D
:1035D0000120FFF719FD0120FFF7F6FC10BD0000E8
:1035E00008B5094A53780133DBB253705378DBB224
:1035F000064A1278934200D210B1034B00225A704F
:10360000FFF7DCFF012008BD44140020E215002074
:10361000014B1870704700BFFB150020014B0122C1
:103620001A707047FA15002008B5574B1B78042B09
:1036300017D8DFE803F0031F41607600534B1B7877
:1036400093B90020FDF7F4FD18B90120FDF7F0FD56
:1036500038B1FEF749FD0120FFF7DAFF4B4B01229D
:103660001A70FFF7F7F908BDFEF7B0FB474B0022D1
:103670001A70E6E70120FDF7DBFD90B1FFF750FF80
:10368000424B01221A70414B1B78002BE9D03E4B74
:103690001B78012BE5D1FEF75DFB3C4B00221A7035
:1036A000DFE70020FDF7C4FD0028ECD0FFF706FDA2
:1036B000364B01221A70E6E7FFF742F8334B00223F
:1036C0001A70FFF70AFB324B1B7853B1304B1B7853
:1036D000DBB2012BC5D10420FFF79AFFFEF732FCC5
:1036E000BFE70320FFF794FFFFF74AF8FFF716F84C
:1036F000FEF7DAFBB5E7FFF77DF8244B187068B9E1
:103700000120FDF795FD0028ABD0FFF76BF80120F5
:10371000FFF77EFF1D4B01221A70A2E7FEF7C4FBE4
:10372000EEE71C4B93F825309BB9184B1B78ABB9CF
:103730000120FDF77DFDA0B10120FFF769FF134BCC
:1037400001221A70134B002283F82520FFF7C5FAD7
:1037500087E7FFF721FB0D4B1870E6E7FEF7F2FB5A
:10376000E6E70020FDF764FD00283FF47AAF094A40
:1037700092F8253083F0010382F82530FEF7CEFF62
:10378000024B01221A706CE7FB150020FA1500208D
:10379000441400201C14002008B501230422052134
:1037A000002001F075FF002008BD08B5FFF7F4FF09
:1037B00008BD08B5002304220521184601F068FF62
:1037C000002008BD08B5012304220F21032001F0C9
:1037D0005FFF002008BD000008B50121044800F08B
:1037E00015FEFCF7E4FCFFF7EDFF00F0E9F908BD7A
:1037F00000250A0008B50121014800F007FE08BDB8
:1038000000250A00012907D0022320F07F4040EA6A
:10381000C36040EA827070470323F6E72DE9F04168
:1038200007460E4601F109054FF0000844460EE038
:10383000F3B20433D9B206E008F1010341465FFA5E
:1038400083F800E05B21082000F092FC0134AC42D8
:1038500024D2002CF6D0012CEAD0022C12D0032C5A
:1038600012D0042C12D0052CE6D0B31DA3420FD0E9
:10387000F31DA3420ED006F10803A3420CD0A31FF0
:10388000F95CE0E7D121DEE78021DCE70021DAE71F
:103890005A21D8E75A21D6E75D21D4E70020BDE8B8
:1038A000F081000000B583B002218DF800100022E5
:1038B0000548FFF7A7FF019008216846FFF7AEFF14
:1038C00003B05DF804FB00BF006A180008B50820CB
:1038D00000F042FCFFF7E6FF08BD00002DE9F043D1
:1038E00089B00446894690460DF1040C1D4D0FCD5C
:1038F000ACE80F0095E807008CE8070025686E6FBC
:1039000006F00106AF6F07F01F070121164800F00F
:103910007DFD0121606800F079FD00230422617BB8
:10392000207B01F0B5FE00230422617A207A01F0A9
:10393000AFFECDF80C90ADF8148001238DF8123055
:1039400001A9284602F046F8A27B237C1B0643EA25
:1039500002233B43AB6746F00A066E67002009B0BE
:10396000BDE8F0836445010000250A00F8B50E4665
:1039700015460768002407E0315D91FAA1F1090EB0
:10398000384602F084F80134AC42F5D30020F8BD8B
:103990000268136913F0200FFBD0704710B504685C
:1039A00002E0204602F060F8236913F0800FF8D19E
:1039B00010BD0000024B4FF40052C3F8A82070471E
:1039C00000A0004010B582B081B1044605F070F847
:1039D000217B49000123019300230093054AB0FB9A
:1039E000F1F1054805F006F802B010BD024804F0F8
:1039F000D1FFF9E7B5390000FC15002070B582B0A1
:103A000004464FF480450E4BC3F89C50407B05F0B4
:103A1000F3F90423ADF806300A4E02220DF1060137
:103A20003046FFF7A3FF3046FFF7B2FFA07B05F05B
:103A3000E3F9054BC3F89C50002002B070BD00BFF5
:103A400000A000465810002000A0004438B50446ED
:103A50000121124800F0DAFC0022A1681048FFF7AB
:103A60003DFF002304220E21032001F011FE00235C
:103A700004220D21032001F00BFE0A4D94E80F00F3
:103A800085E80F000121084B19702046FFF79AFFC7
:103A90002046FFF7B3FF002038BD00BF00250A0015
:103AA000581000201C160020181600202DE9F043A5
:103AB00083B081460D461F460688037903FB06F650
:103AC000F61002F10108274B4FF48042C3F89C2006
:103AD000407B05F091F91FFA88F84FEA08239BB262
:103AE00043F00103ADF8063002220DF106011E4835
:103AF000FFF73CFF00240AE04FF6FF73ADF80630F5
:103B000002220DF106011848FFF730FF0134BC42D4
:103B100014D2324629461448FFF728FF35447B1E4D
:103B2000A342E9D008EB040292B2013292B212022F
:103B300092B242F0FF02ADF80620E1E70A4C2046BF
:103B4000FFF726FF99F80E0005F056F9074B4FF4E2
:103B50008042C3F89C202046FFF720FF002003B0DE
:103B6000BDE8F08300A000465810002000A00044EB
:103B7000034B1B780BB1034870470020704700BF10
:103B8000181600201C16002000B585B0054BEC4629
:103B90000FCB8CE80F006046FFF758FF05B05DF8CB
:103BA00004FB00BF80450100014B1022DA60704722
:103BB00000A00044014B1022DA60704700A00046CC
:103BC00070B588B00DF1040C374C0FCCACE80F0089
:103BD00094E807008CE807000121344800F016FC47
:103BE000334E0121304600F011FC01258DF81250B2
:103BF000304B0393304C01A9204601F0EBFE2B46DD
:103C000004220621022001F043FD00232A46072159
:103C1000022001F03DFD2B4604220821022001F084
:103C200037FD2B4604221146002001F031FD234BC5
:103C3000A3670B2363674FF4487005F0DDF8FFF7C7
:103C4000B3FF142005F0D8F8FFF7B4FF232005F0E8
:103C5000D3F8FFF7A9FFB921204601F00CFFFFF7C9
:103C6000A9FF00231A460621022001F011FD0023BE
:103C70001A460721022001F00BFD2B4600220821E5
:103C8000022001F005FD2B4600220421104601F020
:103C9000FFFC204601F034FE0021A1676167304639
:103CA00000F0B4FB08B070BD9045010000250A008B
:103CB0000042040000127A00000401400B0B000BCC
:103CC000FEE7000008B500F087F8124A0AE0106825
:103CD000516850F8230041F82300013391688B426A
:103CE000F5D30C320C4B9A4201D20023F6E70B4A73
:103CF00008E01168002041F82300013351688B422D
:103D0000F7D30832064B9A4201D20023F6E7FCF7BC
:103D10000FFA00BFC8910100D4910100D4910100B5
:103D2000D49101000048704700F04902114BD3F8CC
:103D3000943003F00703023B032B0DD8DFE803F0B8
:103D4000050F02080C4B18680BE00C4B186808E0D4
:103D50000B4B1868400804E0094B186801E04FF469
:103D60000040044BD3F80031C3F304230133B0FB0C
:103D7000F3F0704700400E407810002070100020D3
:103D80007410002008B5FFF7D1FF054BD3F80831B8
:103D9000C3F308230133B0FBF3F0024B186008BDF6
:103DA00000400E406C100020014B1868704700BFA7
:103DB0007010002008B5064B1860064BD3F89430FD
:103DC00003F00703022B00D008BDFFF7DBFFFBE782
:103DD0007010002000400E40044B054A9A60D3F852
:103DE000882042F47002C3F88820704700ED00E09C
:103DF000000000004FF4004070474FF47A707047A5
:103E0000014B1868704700BF781000200023036042
:103E1000704703680B6001607047D0B18446C2B13F
:103E2000B9B10020137883B100B501F1FF3E86459A
:103E300006D90CF8013B013201301378002BF4D184
:103E400000238CF800305DF804FB00238CF8003070
:103E500070477047034640B1002001E00133013054
:103E60001A781AB18842F9D370470020704708B514
:103E70004FF0FF31FFF7EEFF08BD80B170B50C4683
:103E80001546064622B119B1FFF7F1FF844200D86A
:103E900070BD2A46211A3044FFF7BFFFF8E770478C
:103EA000F0B18446F1B110B409E004F120030FE051
:103EB0002030181A18D1BCB10CF1010C01319CF85A
:103EC00000400B4BE35C03F00303012BEDD02346D2
:103ED0000878074A825C02F00302012AE9D1E7E789
:103EE00001207047012070475DF8044B704700BF08
:103EF000599001000346064A10680344054A93425C
:103F000002D8034A136070474FF0FF30704700BF7C
:103F10007C1000200080002008B543680BB1984752
:103F200008BD2220FCE708B543690BB1984708BDDE
:103F3000FF20FCE70B681A78022A00D1704710B501
:103F400008461A79597902EB42021201064C1444D0
:103F500001EBC40292001268B2FA82F252091A709E
:103F6000FDF77AF910BD00BF1CA0100230B583B078
:103F7000054604680121174800F048FA0023012291
:103F80006179207901F084FB2379627903EB4303A3
:103F90001B011149194402EBC1039B001B68B3FAD2
:103FA00083F35B092370A379022B02D0002003B0B6
:103FB00030BD00F02BF92A460849607900F04EF92F
:103FC00002466179207901230193009301F0E2FA1E
:103FD000ECE700BF00250A001CA01002353F0000DE
:103FE000036818787047000002681378022B17D016
:103FF0001379517903EB43031B011648184401EB75
:10400000C0039B001968B1F1000C18BF4FF0010C00
:104010009079012805D018B9B1FA81F149091170D8
:10402000704753885B009BB243EA0C0343F47F4321
:1040300043F0C0034FF6E0718B4205D04FF6DF71BD
:104040008B4204D05380704701211170F6E70021A4
:104050001170F7E71CA0100208B503681A78022A4D
:1040600000D008BD00225A80FFF780FFF9E710B5A5
:1040700082B004682378022B04D0A379022B03D0EA
:104080000223237002B010BD0021607900F0D6F841
:10409000617920790023019300930A4601F07AFAAE
:1040A000EEE7000008B50121224800F0AFF9012336
:1040B00004220221052001F0EBFA002001F05EFA53
:1040C00001211D4BC3F810180A46042000F0C8FC5B
:1040D0001A4800F04FFB1A4BD3F8F02042F00102CF
:1040E000C3F8F020D3F8FC2042F08072C3F8FC2023
:1040F000A3F55D43134A1A6000F5D52000F2FC4099
:10410000C008114BA3FB0030800A01380F4B186127
:104110000222C3F8F0204FF48072C3F804234FF05A
:1041200060430B4AC3F8B02F0A4AC3F8802E002020
:1041300008BD00BF00250A000080144206000E00E2
:1041400000ED00E0FF03004017916502000004E06D
:1041500055CEACC5090001004FF06041D1F8003EDA
:10416000012282401343C1F8003E00207047000046
:104170004FF06043D3F8803E13F0010F01D11120BE
:1041800070470E4AD2F8FC3043F08073C2F8FC301E
:104190004FF06043D3F8002E4FF0010C0CFA00FCF6
:1041A00042EA0C02C3F8002E53F82030002BE8D06E
:1041B0004FF0604303F820100020704700ED00E04E
:1041C00010B5044602E0202007E09047DCB194FAE5
:1041D000A4F00028F7D0B0FA80F00123834024EA4D
:1041E0000304094B03EB00135A68002AEED0064B78
:1041F00003EB00131B7B002BE7D0034B03EB0013F7
:1042000099689047E2E710BD2C16002008B51220EF
:1042100000F020FE28B1084B4FF48022C3F8802123
:104220001A600A2000F016FE28B1034B4FF480629A
:10423000C3F880211A6008BD00E100E038B50546EA
:104240000C4600F0FEFD044B03EB05135C600022FE
:104250001A7300F0FCFD38BD2C160020F8B5054699
:104260000F46164600F0EDFD05F0FC0C104BD3F8A0
:1042700028140023032B0CD8EC1804F0030444EAA0
:104280000C0421FA04F212F0010F03D00133DBB267
:10429000F0E7FF24FF2C06D0064B03EB04135F600E
:1042A0009E6001221A7300F0D2FD2046F8BD00BFC7
:1042B00000A000402C16002008B5064BD3F82804B7
:1042C000D3F81C24104000F05530C3F82404FFF745
:1042D00077FF08BD00A0004008B5064BD3F82804BE
:1042E000D3F81C24104000F0AA30C3F82404FFF7D0
:1042F00067FF08BD00A000400C4B984205D90C4B4D
:10430000984210D801210A4601E000210A46094BD3
:104310001A64094AD2F8003123F0807343EA01633A
:10432000C2F80031704702210122F0E70048E8019D
:104330000090D0030000C84300400E40014B1868B5
:10434000704700BF80100020114B5B68002300E025
:104350000133042B0CD80F4A02EBC30292F804C0BD
:10436000CAB29445F4D10B4A52F833208242EFD3BB
:10437000052B0BD0074A02EBC3035979044A536853
:1043800023F0407343EA0163536070470321F5E76C
:1043900000000E40AC45010003300F2828BF0F205D
:1043A0000007704708B5FFF7C1FC044BD3F8003194
:1043B000C3F3042303FB000008BD00BF00400E4010
:1043C00038B5084B1C6CA4B241F671351D64FFF77B
:1043D000A9FC0021FFF7B8FFAC4202D0014B00223C
:1043E0001A6438BD00000E4038B5074B1C6CA4B2EF
:1043F00041F671351D64FFF7A7FFAC4202D0024BB6
:1044000000221A6438BD00BF00000E4010B4C0F393
:104410000323013B092B21D8DFE803F00508202006
:1044200030232620292D0024164A01E00024164AB4
:10443000C0F3043054B1134BD3F8443113F0010FDF
:1044400004D1104BD3F840311C42FAD102F142435F
:1044500003F5801300EBC300800001605DF8044B9E
:1044600070470124094AE3E71024094AE0E74FF4C2
:104470008034084ADCE70024074AD9E70024074AC9
:10448000D6E700BF00400E40C0400E40E0400E4066
:10449000E8400E40F0400E4050410E40B0400E400B
:1044A000C0F30313013B092B5BD8DFE803F0050BD6
:1044B000111B5A5A2127414F2B4BD3F80001C0F34F
:1044C00004207047284BD3F81401C0F30420704730
:1044D000254BD3F80001C0F30060431C0120984035
:1044E00001387047204BD3F80C01C0F30820704707
:1044F0001D4BD3F80801C0F3082070471B4B9842AE
:1045000004D01B4B98420AD000207047164BD3F8BA
:10451000203103F00F030120984001387047124BFF
:10452000D3F82031C3F301130120984001387047BC
:10453000104B984201D0002070470B4BD3F8283124
:10454000C3F3011301209840013870470A4B984289
:1045500001D000207047044BD3F8300100F0030075
:1045600070470020704700BF00400E4080061600D4
:1045700080162E0090171A00A009140008B5FFF746
:104580008FFF013008BD000000F00F000138072840
:1045900065D8DFE800F0041B2A643E4D64553B4BB0
:1045A000D3F8943003F00703023B052B0CD8DFE867
:1045B00003F0055803070B090220704704207047D9
:1045C0000B2070470C207047052070472F4BD3F805
:1045D000803003F00703022B45D0042B45D0012B7C
:1045E00001D00120704703207047284BD3F8843056
:1045F00003F00703013B032B09D8DFE803F002387F
:104600000604032070470A207047062070470120E7
:1046100070471E4BD3F8883003F00703022B28D0D5
:10462000042B28D0012B01D00120704703207047B4
:10463000164B1B6F13F001031FD003B30920704703
:10464000124BD3F85C3103F03003202B19D0302B00
:1046500019D0102B01D0012070470720704700208F
:10466000704703207047022070470A2070470220DD
:104670007047022070470A207047072070470120CA
:104680007047042070470820704700BF00400E406C
:1046900010B50446FFF778FF1B4B9C4212D01B4B12
:1046A0009C4215D01A4B9C4206D00138032828D8CA
:1046B000DFE800F014171D1A164BD3F8800000F045
:1046C0000700F2E7134BD3F8840000F00700ECE793
:1046D000104BD3F8880000F00700E6E7FFF78AFBED
:1046E00010BDFFF78DFBFBE7FFF787FBF8E7FFF750
:1046F0001DFB084BD3F80031C3F300630133D840EE
:10470000EEE70020ECE700BF0300200005002400D6
:1047100002001E0000400E4008B50748FFF734FFB6
:10472000072804D0092805D1FFF700FB03E0FFF7B5
:1047300005FE00E0002008BD06000E0008B10020C4
:10474000704710B504460A48FFF71EFF072805D03A
:10475000082809D0042804D0204610BDFFF7EEFD3C
:10476000FBE7FFF721FBF8E7FFF71CFEF5E700BFCB
:10477000B800320038B500F47813B3F5B01F00F07C
:10478000968004463BD8B3F5402F00F0818010D9C5
:10479000B3F5801F00F09980B3F5A01F27D14E48D4
:1047A000FFF776FF4D4BD3F8303103F00303D840C9
:1047B0001CE0B3F5802F60D005D9B3F5202F14D1BC
:1047C000FFF7B4FA12E0002B54D0B3F5003F0AD142
:1047D000FFF7ACFA414BD3F80831C3F30823013398
:1047E000B0FBF3F002E0002000E0002038BDB3F59C
:1047F000602F02D1FFF790FFF8E70020F6E7B3F54E
:10480000101F5ED00ED9B3F5481F61D0B3F5781FE5
:1048100021D1FFF78BFA05462046FFF7AFFEB5FB27
:10482000F0F0E3E7B3F5F01F3DD0B3F5001F03D17F
:104830002B48FFF72DFFD9E7B3F5D01F09D1284842
:10484000FFF726FF254BD3F82831C3F30113D840D7
:10485000CCE70020CAE7B3F5381F09D12148FFF79C
:1048600017FF1E4BD3F82031C3F30113D840BDE727
:104870000020BBE7FFF75AFAB8E7FFF757FA174BE4
:10488000D3F80C31C3F308230133B0FBF3F0ADE7E9
:10489000FFF74CFA114BD3F81431C3F3042301335F
:1048A000B0FBF3F0A2E70F48FFF7F2FE9EE70D48DA
:1048B000FFF7EEFE094BD3F8203103F00F03D84089
:1048C00094E70548FFF7E4FE90E7FFF737FD8DE733
:1048D0000020FFF733FF89E70500240000400E4069
:1048E0000300200002001E00014B1868704700BF43
:1048F00074100020014B1880704700BF8410002006
:104900000138032818D8DFE800F00211070C0B4B20
:10491000186AC0F308007047084B186900F07F0060
:104920007047064B986900F07F007047034BD3F83F
:104930009C00C0F30A0070470020704700400E4002
:1049400038B50C460138032812D8DFE800F0022EF3
:104950001220C1F308041F4BD3F86838002BFAD19A
:104960001D4A136A23F4FF7323F0010323431362E8
:1049700038BD01F07F04174BD3F86038002BFAD113
:10498000154A136923F07F031C431461F0E701F01B
:104990007F04104BD3F86438002BFAD10E4A936988
:1049A00023F07F031C439461E2E70B4DD5F8903070
:1049B0006B6A23F0300343F010036B62C1F3C31042
:1049C000FFF7EAFC2A6B054B1340234303432B6399
:1049D000CEE700BF0020C84300400E4000F8FF0FA4
:1049E000134B5B6A13F0300F09D0202914D0302903
:1049F00015D009B10F4A04E04FF4400201E04FF432
:104A000040020B4BD3F8903032EA0303F9D112F491
:104A1000800F07D1012070474FF40002F1E74FF4F7
:104A20004002EEE7024BD3F8A000C0F380207047AD
:104A300000400E40FF33E13F022801D001207047C3
:104A400010B529B1054B4FF48064C3F8A8405966EE
:104A50000AB9012010BDFFF7C3FFFBE700400E407D
:104A600070B5042800F28580DFE800F0484250036A
:104A70003C00022301250024AC46002967D002280F
:104A80004AD000213B4B1D663B4B23449B001B68D7
:104A9000002BF9D0002A6CD0374C6444A400236862
:104AA000002BF9D0022864D1002962D0314B5B6A17
:104AB00013F0010F46D001222021FFF7BDFF022095
:104AC000FFF71EFF0646012200210220FFF7C8FF64
:104AD00031460220FFF734FF264B1D662368002B6A
:104AE000FCD046E02023102504244FF0050CC4E739
:104AF0008023402506244FF0070CBEE74FF40073D7
:104B00004FF4807508244FF0090CB6E708230425FC
:104B100002244FF0030CB0E7164B5B6A13F0300F22
:104B20000ED1164BDB6B134B5B6A13F0010FA9D050
:104B3000104E736A23F0300343F010037362A1E751
:104B400000219FE700210220FFF74AFFB7E709494C
:104B50000B66084BD3F890100123A3401942F8D1FB
:104B60003AB1044BD3F89020012303FA0CF31A4214
:104B7000F7D170BD00400E408004F21000300E40AE
:104B800070B505460C4611280CD0002605F00F051F
:104B90006B1E072B00F28780DFE803F01E7A1C856E
:104BA0006F9985A5042903D005290BD00026EDE7D0
:104BB000FFF7FAF80646002EE8D00021304600F054
:104BC000BDFAE3E7FFF790FE0646604B9842F2D845
:104BD0000026DBE75E4D51E0023C0A2C63D8DFE89B
:104BE00004F00644093F6262626262474A000020A4
:104BF000042504E05748FFF77FFB02200546012209
:104C00001146FFF72DFFFFF7DBFB4EB1524BDB6B7D
:104C100013F0400F04D1514BD3F8C830002BFAD118
:104C20004F4B5D67FFF7AEF80446FFF77FF8FFF7DD
:104C300063FB494BDB6B13F0400F04D1474BD3F8B8
:104C4000C830002BFAD1444B5968C1F301412046CA
:104C5000FFF7CAFB3EBB0121002000F06FFA22E003
:104C60003C48FFF749FB0320C9E701200325C6E7BD
:104C700003200525C3E70725C5E73A4D013C092C6C
:104C800011D8DFE804F007091110101810101022D5
:104C9000354DF3E7002305E0012211460020FFF720
:104CA000DFFE02232B6070BD012211461046FFF784
:104CB000D7FE0123F6E7FFF739F8FFF71DFB2B4B73
:104CC0000122C3F800260323ECE70423EAE7072CBC
:104CD00005D0092CE7D1224B01221A67E3E7204BCC
:104CE00000221A67DFE7013C072CDCD801A353F848
:104CF00024F000BF154D0000A74C0000A74C000099
:104D0000394D0000A74C0000A74C0000194D0000D1
:104D1000474D0000002105E0012211460420FFF765
:104D20009FFE01210E4AD2F85C3123F0300343EAA2
:104D30000113C2F85C31B6E7012211460220FFF7E9
:104D40008FFE0221EEE70321ECE700BF002D3101C9
:104D500084400E400148E80100300E400000C64388
:104D600000400E4088400E4080400E400010C84376
:104D700070B504461120FFF707FC01220021022034
:104D8000FFF76EFE237C022B2AD00022154E736A99
:104D900023F00103134373622278134BC3F8A0245A
:104DA000A288637A43EAC223F362356B05F07F651C
:104DB000E38845EAC325A37A1D43207A45EAC01556
:104DC000FFF7EAFA05433563627BA37B1B0143EAE5
:104DD0000233E27B1343227B43EA0243736370BDD9
:104DE0000122D3E700400E400000C84338B5054615
:104DF0001120FFF7C9FB0D4A916B0D4B0B402C782E
:104E00001C436B7844EAC324AB7844EA0364EB7830
:104E100044EA0324936BA34200D138BD0122002150
:104E20000846FFF71DFE014B9C63F6E700400E406D
:104E300080E4FFF8EFF3108072B6704700B962B6F5
:104E40007047EFF31180602383F31188704780F37C
:104E5000118870474209064B53F8223000F01F00BA
:104E600023FA00F080F0010000F00100704700BF5D
:104E700000E100E01A48C26CC2F30322194B1B8800
:104E800003F1280103EB51032833013202EB8201C5
:104E9000B3FBF1F3013B072B28BF0723C16C21F0C3
:104EA000EE6141EA036343F48013C3640E4BB3F92C
:104EB0000030002B13DB9BB203F1280103EB5103FD
:104EC0002833510801EB4202B3FBF2F3072B28BF52
:104ED0000723026D22F0700242EA03130365704754
:104EE00000300E402E18002030180020024B188091
:104EF000024B1980704700BF2E1800203018002088
:104F000010B1012804D07047034B044A9A657047DA
:104F1000014B034A9A65704700300E407740205796
:104F2000372110B71A4BD3F83032032929D8DFE8DC
:104F300001F002121518DBB24AB91B0333F47041B9
:104F400021D11448C16E21F470411943C166012A70
:104F500009D001207047C3F30723EDE7C3F30743EC
:104F6000EAE71B0EE8E71B0333F470420DD1094951
:104F7000D1F8EC2022F470421343C1F8EC30012048
:104F8000704700207047002070470020704700BF26
:104F90000081E00F00300E401B02A2B1012213433A
:104FA000B3F5007F4DD022D8B3F5807F42D00CD925
:104FB00040F20112934215D1294BD3F824321A0E34
:104FC000C3F3074310E00022E9E763B3012B06D1E6
:104FD000234BD3F82432C3F30722DBB204E00022D0
:104FE000134601E00022134603600A607047B3F5E0
:104FF000407F2DD040F20132934206D1184BD3F8B6
:1050000028321A0EC3F30743EEE740F2012293421F
:1050100006D1134BD3F82832C3F30722DBB2E3E700
:1050200000221346E0E70E4BD3F81C32C3F30722ED
:10503000DBB2D9E70A4BD3F81C321A0EC3F307438D
:10504000D2E7074BD3F82032C3F30722DBB2CBE71A
:10505000034BD3F820321A0EC3F30743C4E700BF53
:105060000081E00F134B9A6922F03F020378D3B11D
:1050700004234178C9B102210B438178B9B10821D9
:105080000B43C178012900D000210B4301790B4368
:105090001343084A9361136823F44033417943EA88
:1050A0000143136070470023E3E70021E4E7002198
:1050B000E6E700BF00300E401D4BDB6B13F0400FE6
:1050C00035D170B504460D46194BDB6B13F0400F1C
:1050D00004D1184BD3F8C830002BFAD1144B5B68BD
:1050E000C3F301439C4218D0134BD3F80031FEF7B1
:1050F0001DFE0646022C11D0C4F10202102393407B
:105100000B4A136145B1D36B13F0400F04D1094B27
:10511000D3F8C830002BFAD124B170BD0221FFF7BB
:1051200063F9E9E700213046FFF75EF9F5E77047DC
:1051300000300E400000C64300400E4038B5114B11
:10514000DB6B13F0400F0BD10C4650B10E4B1B78AC
:1051500013B10E4B98420FD921460020FFF7ACFF48
:1051600038BD0B4BD3F80001C0F30420451CFEF7FB
:10517000DDFD05FB00F0E9E721460220FFF79CFF7B
:10518000EEE700BF00300E4034180020002D310142
:1051900000400E4010B41E4B5A6B4AF6E85159635A
:1051A0001B4B9B6F13F0010FFAD1194B1B6C13F0C3
:1051B000030303D017490124C1F8B44ADBB2834288
:1051C0001AD0134B9B6F13F0010FFAD110490B6CDF
:1051D00023F0030303430B640D4B9B6F13F0010F8C
:1051E000FAD1003818BF01200A4BC3F8B40A012ACB
:1051F00009D05DF8044B70470028FAD1054B002216
:10520000C3F8B42AF5E7024B00225A63F1E700BF66
:1052100000300E400000C6432DE9F04F8DB00091E4
:105220000192002309930A930B9306930793089323
:10523000039304930593664A1288ADF808208DF80D
:105240000A30A0F5E163B3F5966F00F2B080064630
:10525000B0F5E16F8CBF4FF001094FF000096FD935
:105260004FF496644FF4E165B6F5E16F6DD9594B93
:10527000D3F8183208931A0E0592C3F30743089324
:10528000DFF85481D8F84C70C7F301778DF80870B7
:105290003B464A4603A906A8FFF77EFED8F8EC3045
:1052A000C3F301288DF8098043464A4604A907A89C
:1052B000FFF772FE721B089B0599C91A02FB01F1E8
:1052C000B1FBF4F10B9119440B91DDF80CA0DDF862
:1052D00018C0AAEB0C0502FB05F5B5FBF4F5099522
:1052E00065440995DDF810E00798AEEB000B0BFB69
:1052F00002F2B2FBF4F40A9404440A94059A8A4236
:1053000059D38B4259D8A64559D3A04259D8AA455A
:1053100059D3AC4559D8019B73B12F4BDB6D23F4A6
:10532000FE4323F0020343EA0123B6F5E16F16D9E9
:1053300002210B43284AD365009B93B9012037E033
:105340004FF416744FF496658EE7224BD3F818325B
:105350000893C3F307220592DBB2089390E700217C
:10536000E7E7002239464846FFF7DCFD00B301229B
:1053700041464846FFF7D6FDD0B1AC4238BF2C4677
:105380000994E72C28BFE7240994134B5B6E23F4A0
:10539000FF7323F0010343EA4403B6F5E16F04D938
:1053A000012213430C4A536602E00022F9E7002071
:1053B0000DB0BDE8F08F0020FAE70020F8E70020EC
:1053C000F6E70020F4E70020F2E70020F0E700BF56
:1053D000D44501000081E00F00300E4008B5214B9C
:1053E0001A6FDB6C13F0010F09D012F0060F06D014
:1053F00013281FD9143813281ED8082323E0194B6B
:10540000DB6C13F0010F09D112F0060F06D1092849
:1054100014D90A38092813D8082314E0114BDB6C7F
:1054200013F001030FD012F0060F0BD1272817D865
:10543000082308E0042306E0102304E0042302E02C
:10544000102300E00023013B1A0342EA032205492E
:10545000CB6C23F47F431343CB64FFF70BFD08BDF4
:105460001023F0E700300E4008B5074BD3F8803921
:10547000064A136F23F0070303431367044B18888E
:10548000FFF7ACFF08BD00BF0000C64300300E4070
:105490002C18002008B5084AD36E43F08073D366F9
:1054A000064BD3F880391BB10420FFF7DDFF08BDA0
:1054B0000020FFF7D9FFFAE700300E400000C64396
:1054C00038B50446B0F90C10C3884A2B09D9B3F596
:1054D000FA7F33D340F6C312934232D84FF00052D2
:1054E00000E00022224BDB6C23F0405323F0010349
:1054F000002929DB01210A4313431D4AD364D2F852
:10550000EC3043F44073C2F8EC30A288194B1A8097
:10551000FFF7C0FFB4F90C102089FFF7E7FCA08863
:10552000FFF75CFFA07BFFF7EBFC012211466088D0
:10553000FFF772FE054648B9284638BD4FF0805245
:10554000D0E74FF04052CDE70021D4E7084AD36BB3
:1055500043F48063D3636078FFF71CFEA37A202BAB
:1055600004D00022044BC3F89427E5E70122F9E7B1
:1055700000300E402C1800200000C643044AD2F828
:10558000443423F003030343C2F84434704700BF9C
:1055900000A000402DE9F8430C4615461E46072A98
:1055A00041D893004FF00F0808FA03F800FA03F708
:1055B000FFF740FC324AD2F8001487EA010303EAFD
:1055C00008034B40C2F80034FFF738FC4FF00008E6
:1055D000072D3FD8A90003278F4004F003048C4017
:1055E000FFF728FC264BD3F8082454403C40544095
:1055F000C3F80844FFF722FC224B2B449B001E609B
:10560000214B2B449B009DF820201A600123AB40C6
:105610001B4AC2F824341D4B2B449B009DF82420C8
:105620001A60BDE8F883A2F108084FEA88030F2743
:1056300007FA03F900FA03F7FFF7FCFB104BD3F866
:105640000424574007EA09075740C3F80474FFF7DA
:10565000F5FBBDE74FEA8808032707FA08F704F0CF
:10566000030404FA08F4FFF7E5FB054BD3F80C2418
:1056700054403C405440C3F80C44FFF7DFFBBBE709
:1056800000A0004080208510A020851040218510BA
:105690002DE9F04704460E461F4690463AB183B3C3
:1056A00000EB400109010122B2402D4B5A50072E58
:1056B0002FD804EB44031B01DFF8AC909944B300EE
:1056C0004FF00F0A0AFA03FA08FA03F5FFF7B2FBE4
:1056D000D9F8002085EA020303EA0A035340C9F817
:1056E0000030FFF7ABFBB8F1000F08D177B304EB44
:1056F00044042401012101FA06F6194B1E51BDE8AC
:10570000F08700EB400109010122B240154B5A50CD
:10571000CDE704EB44031B01DFF850909944A6F158
:10572000080292004FF00F0A0AFA02FA08FA02F58C
:10573000FFF780FBD9F8003085EA030202EA0A028B
:105740005A40C9F80020FFF779FBCCE704EB44048A
:105750002401012101FA06F6024B1E51CFE700BFDA
:105760000CA000460CA0004404A0004008A000408B
:105770004A790B7891F801C043EA8C0391F802C092
:1057800043EA8C1391F803C043EA0C1391F804C068
:1057900043EACC2343EA02338A7943EA42430430A2
:1057A0000001014A1350704700200440014B18606B
:1057B000704700BF00008442037813B3012342788E
:1057C0000AB3042213438278FAB110221343C27839
:1057D000EAB120221343027943EA0223427943EAE1
:1057E00002338279AAB14FF400421343C27943EAEB
:1057F0000243027A7AB14FF400321343074A13602E
:1058000070470023DBE70022DCE70022DEE700220E
:10581000E0E70022E9E70022EFE700BF00200440B4
:105820000D4AD2F8E4309B0003F03C03D2F8E010BC
:10583000C1F381110B438370D2F8E03003F03F03D2
:105840004370D2F8E83003F0F003D2F8EC20C2F352
:10585000031213430370704700FF0FE041F0800113
:105860008165704770B5054616461C460846D1B19D
:10587000402C20D01BD804B3202C13D1082106FBC8
:1058800001F14B0803EB4013B3FBF1F3203B0C4A4F
:1058900002EAC3032A6822F060022A602A681443DD
:1058A0002C606B6170BD0748FEF764FFE0E7602C79
:1058B000F8D10421E3E70621E1E71021DFE700BF8B
:1058C000F8FF7F004041050038B5054614460B46F9
:1058D00031B1013B6400B3FBF4F31B026B6138BDD3
:1058E0000248FEF747FF0346F3E700BF40410500CB
:1058F000CB435B0003F00A03C360C1607047000044
:1059000040F6AA63C3600023036041F205024260CF
:1059100083604361C3640D4A82640366436783679F
:10592000C3670B4B984203D003F58063984201D1C3
:10593000002303650023836503F1804303F582336D
:10594000984200D070470023C365FBE7F9FF0100D0
:105950000000014038B505460C46FFF7D1FFA37C97
:105960001BB12B6843F080432B60E37C002B2CD1D0
:10597000637B228A1343E28913436B60237BA26813
:1059800061682846FFF76EFF637D1BB12B6843F407
:1059900080332B60A37D1BB12B6843F400432B6045
:1059A000E37D1B0703F0E043227E120502F4E002D0
:1059B00013432B666B6F23F030036B676B6F627E54
:1059C00013436B672378EB6038BD217D2846FFF7D2
:1059D00045FFCDE738B505460C46FFF791FF2A682D
:1059E000238A43F00103A17B002934D04FF4806166
:1059F0000B4313432B602B68227D002A2DD04FF0E0
:105A0000005213432B60A37C4BBB237B43F4805396
:105A10006B60A26861682846FFF756FF637B0BB195
:105A20001023EB60637D1BB12B6843F480332B6044
:105A3000A37D1BB12B6843F400432B60E37D1B0760
:105A400003F0E043227E120502F4E00213432B66CA
:105A50002378EB6038BD0021CAE70022D1E7E17C62
:105A60002846FFF7FBFED0E7036913F0800FFBD059
:105A7000C069C0B27047036913F0400FFBD04163A7
:105A8000036913F0200FFBD0C069C0B270470369EF
:105A900013F0400FFBD0416370470000411100F04C
:105AA0001F00012303FA00F0034A52F82130034398
:105AB00042F82130704700BF44180020044B1B6897
:105AC0001BB1044B0360002070470120704700BFEA
:105AD000542000203818002010B4124C2468B4B1AF
